:020000040800F2
:10000000000001203D600008C15B0008C35B0008E0
:10001000C55B0008C75B0008C95B00080000000062
:10002000000000000000000000000000E1360008B1
:10003000CB5B00080000000071370008CD5B0008B2
:10004000816000088160000881600008816000080C
:1000500081600008816000088160000881600008FC
:1000600081600008816000088160000881600008EC
:1000700081600008816000088160000881600008DC
:100080008160000881600008E55B0008816000086D
:1000900081600008816000088160000881600008BC
:1000A00081600008816000088160000881600008AC
:1000B000816000088160000881600008816000089C
:1000C000816000088160000881600008816000088C
:1000D00081600008F15B0008816000088160000811
:1000E0008160000881600008816000080000000055
:1000F0000000000000000000000000000000000000
:10010000000000000000000081600008816000081D
:100110008160000881600008595C0008CD5C00081F
:10012000816000088160000881600008816000082B
:1001300081600008000000000000000081600008ED
:10014000816000088160000881600008816000080B
:10015000000000000000000000000000000000009F
:10016000000000000000000000000000000000008F
:10017000000000000000000000000000000000007F
:10018000000000000000000000000000000000006F
:10019000000000000000000000000000000000005F
:1001A000000000000000000000000000000000004F
:1001B000000000000000000000000000000000003F
:1001C000000000000000000000000000000000002F
:1001D000000000000000000000000000000000001F
:0401E0005FF8E0F1F3
:1001F00010B5054C237833B9044B13B10448AFF361
:1002000000800123237010BD0801002000000000C1
:10021000886F000808B5034B1BB103490348AFF3CF
:10022000008008BD000000000C010020886F00085D
:10023000D0400B1CD1409C46203AD3401843524238
:10024000634693401843704781F0004102E000BFCD
:1002500083F0004330B54FEA41044FEA430594EA86
:10026000050F08BF90EA020F1FBF54EA000C55EAC1
:10027000020C7FEA645C7FEA655C00F0E2804FEA92
:100280005454D4EB5555B8BF6D420CDD2C4480EA74
:10029000020281EA030382EA000083EA010180EAA4
:1002A000020281EA0303362D88BF30BD11F0004FF2
:1002B0004FEA01314FF4801C4CEA113102D0404228
:1002C00061EB410113F0004F4FEA03334CEA133363
:1002D00002D0524263EB430394EA050F00F0A7807B
:1002E000A4F10104D5F1200E0DDB02FA0EFC22FA76
:1002F00005F2801841F1000103FA0EF2801843FA6A
:1003000005F359410EE0A5F120050EF1200E012A5A
:1003100003FA0EFC28BF4CF0020C43FA05F3C01898
:1003200051EBE37101F0004507D54FF0000EDCF111
:10033000000C7EEB00006EEB0101B1F5801F1BD3BA
:10034000B1F5001F0CD349085FEA30004FEA3C0CBE
:1003500004F101044FEA445212F5800F80F09A80B4
:10036000BCF1004F08BF5FEA500C50F1000041EBB8
:10037000045141EA050130BD5FEA4C0C404141EBBC
:10038000010111F4801FA4F10104E9D191F0000FE3
:1003900004BF01460020B1FA81F308BF2033A3F166
:1003A0000B03B3F120020CDA0C3208DD02F1140C5D
:1003B000C2F10C0201FA0CF021FA02F10CE002F198
:1003C0001402D8BFC2F1200C01FA02F120FA0CFC91
:1003D000DCBF41EA0C019040E41AA2BF01EB0451DA
:1003E000294330BD6FEA04041F3C1CDA0C340EDCD8
:1003F00004F11404C4F1200220FA04F001FA02F31B
:1004000040EA030021FA04F345EA030130BDC4F1D8
:100410000C04C4F1200220FA02F001FA04F340EACD
:100420000300294630BD21FA04F0294630BD94F07E
:10043000000F83F4801306BF81F480110134013D65
:100440004EE77FEA645C18BF7FEA655C29D094EAD6
:10045000050F08BF90EA020F05D054EA000C04BF54
:100460001946104630BD91EA030F1EBF002100203F
:1004700030BD5FEA545C05D14000494128BF41F0DE
:10048000004130BD14F580043CBF01F5801130BD42
:1004900001F0004545F0FE4141F470014FF00000CD
:1004A00030BD7FEA645C1ABF194610467FEA655C7E
:1004B0001CBF0B46024650EA013406BF52EA033520
:1004C00091EA030F41F4002130BD00BF90F0000F0E
:1004D00004BF0021704730B54FF4806404F132044A
:1004E0004FF000054FF0000150E700BF90F0000F03
:1004F00004BF0021704730B54FF4806404F132042A
:1005000010F0004548BF40424FF000013EE700BFF9
:1005100042004FEAE2014FEA31014FEA02701FBF89
:1005200012F07F4393F07F4F81F06051704792F05B
:10053000000F14BF93F07F4F704730B54FF46074D5
:1005400001F0004521F0004120E700BF50EA010220
:1005500008BF704730B54FF000050AE050EA0102CD
:1005600008BF704730B511F0004502D5404261EB3D
:1005700041014FF4806404F132045FEA915C3FF47E
:10058000DCAE4FF003025FEADC0C18BF03325FEA17
:10059000DC0C18BF033202EBDC02C2F1200300FACC
:1005A00003FC20FA02F001FA03FE40EA0E0021FAF1
:1005B00002F11444C1E600BF70B54FF0FF0C4CF4DB
:1005C000E06C1CEA11541DBF1CEA135594EA0C0F91
:1005D00095EA0C0F00F0DEF82C4481EA030621EACC
:1005E0004C5123EA4C5350EA013518BF52EA033507
:1005F00041F4801143F4801338D0A0FB02CE4FF0B9
:100600000005E1FB02E506F00042E0FB03E54FF0E8
:100610000006E1FB03569CF0000F18BF4EF0010EE0
:10062000A4F1FF04B6F5007F64F5407404D25FEADC
:100630004E0E6D4146EB060642EAC62141EA55518F
:100640004FEAC52040EA5E504FEACE2EB4F1FD0CD1
:1006500088BFBCF5E06F1ED8BEF1004F08BF5FEA4F
:10066000500E50F1000041EB045170BD06F0004601
:1006700046EA010140EA020081EA0301B4EB5C04AE
:10068000C2BFD4EB0C0541EA045170BD41F48011A6
:100690004FF0000E013C00F3AB8014F1360FDEBFCB
:1006A000002001F0004170BDC4F10004203C35DAA7
:1006B0000C341BDC04F11404C4F1200500FA05F32A
:1006C00020FA04F001FA05F240EA020001F00042CB
:1006D00021F0004110EBD37021FA04F642EB060141
:1006E0005EEA430E08BF20EAD37070BDC4F10C046B
:1006F000C4F1200500FA04F320FA05F001FA04F22F
:1007000040EA020001F0004110EBD37041F100011A
:100710005EEA430E08BF20EAD37070BDC4F1200525
:1007200000FA05F24EEA020E20FA04F301FA05F28D
:1007300043EA020321FA04F001F0004121FA04F235
:1007400020EA020000EBD3705EEA430E08BF20EA05
:10075000D37070BD94F0000F0FD101F0004640003F
:1007600041EB010111F4801F08BF013CF7D041EAC1
:10077000060195F0000F18BF704703F000465200C5
:1007800043EB030313F4801F08BF013DF7D043EA96
:100790000603704794EA0C0F0CEA135518BF95EA4C
:1007A0000C0F0CD050EA410618BF52EA4306D1D1D3
:1007B00081EA030101F000414FF0000070BD50EAF2
:1007C000410606BF1046194652EA430619D094EA7C
:1007D0000C0F02D150EA013613D195EA0C0F05D166
:1007E00052EA03361CBF104619460AD181EA0301BA
:1007F00001F0004141F0FE4141F470014FF0000072
:1008000070BD41F0FE4141F4780170BD70B54FF00C
:10081000FF0C4CF4E06C1CEA11541DBF1CEA13558C
:1008200094EA0C0F95EA0C0F00F0A7F8A4EB05046E
:1008300081EA030E52EA03354FEA013100F0888065
:100840004FEA03334FF0805545EA131343EA12632E
:100850004FEA022245EA111545EA10654FEA0026E3
:100860000EF000419D4208BF964244F1FD0404F59C
:10087000407402D25B084FEA3202B61A65EB0305F8
:100880005B084FEA32024FF480104FF4002CB6EBB5
:10089000020E75EB030E22BFB61A754640EA0C0035
:1008A0005B084FEA3202B6EB020E75EB030E22BF75
:1008B000B61A754640EA5C005B084FEA3202B6EBB6
:1008C000020E75EB030E22BFB61A754640EA9C0075
:1008D0005B084FEA3202B6EB020E75EB030E22BF45
:1008E000B61A754640EADC0055EA060E18D04FEA03
:1008F000051545EA16754FEA06164FEAC30343EAA3
:1009000052734FEAC2025FEA1C1CC0D111F4801F6F
:100910000BD141EA00014FF000004FF0004CB6E768
:1009200011F4801F04BF01430020B4F1FD0C88BF07
:10093000BCF5E06F3FF6AFAEB5EB030C04BFB6EB12
:10094000020C5FEA500C50F1000041EB045170BD05
:100950000EF0004E4EEA113114EB5C04C2BFD4EB32
:100960000C0541EA045170BD41F480114FF0000EB6
:10097000013C90E645EA060E8DE60CEA135594EA32
:100980000C0F08BF95EA0C0F3FF43BAF94EA0C0F35
:100990000AD150EA01347FF434AF95EA0C0F7FF4AA
:1009A00025AF104619462CE795EA0C0F06D152EAFE
:1009B00003353FF4FDAE1046194622E750EA4106E2
:1009C00018BF52EA43067FF4C5AE50EA41047FF4F3
:1009D0000DAF52EA43057FF4EBAE12E74FEA410256
:1009E00012F5001215D211D56FF47873B3EB625281
:1009F00012D94FEAC12343F0004343EA505311F0A8
:100A0000004F23FA02F018BF404270474FF0000039
:100A1000704750EA013005D111F0004008BF6FF077
:100A2000004070474FF00000704700BF80F000406A
:100A300002E000BF81F0004142001FBF5FEA4103B6
:100A400092EA030F7FEA226C7FEA236C6AD04FEAB6
:100A50001262D2EB1363C1BFD218414048404140FB
:100A6000B8BF5B42192B88BF704710F0004F40F4AD
:100A7000000020F07F4018BF404211F0004F41F4C9
:100A8000000121F07F4118BF494292EA030F3FD095
:100A9000A2F1010241FA03FC10EB0C00C3F12003A8
:100AA00001FA03F100F0004302D5494260EB400037
:100AB000B0F5000F13D3B0F1807F06D340084FEAA2
:100AC000310102F10102FE2A51D2B1F1004F40EB97
:100AD000C25008BF20F0010040EA030070474900FF
:100AE00040EB000010F4000FA2F10102EDD1B0FACA
:100AF00080FCACF1080CB2EB0C0200FA0CF0AABFBF
:100B000000EBC25052421843BCBFD040184370475C
:100B100092F0000F81F4000106BF80F40000013262
:100B2000013BB5E74FEA41037FEA226C18BF7FEA39
:100B3000236C21D092EA030F04D092F0000F08BF7B
:100B40000846704790EA010F1CBF0020704712F062
:100B50007F4F04D1400028BF40F00040704712F1A1
:100B600000723CBF00F50000704700F0004343F006
:100B7000FE4040F4000070477FEA226216BF08463C
:100B80007FEA23630146420206BF5FEA412390EAFF
:100B9000010F40F4800070474FF0000304E000BFF5
:100BA00010F0004348BF40425FEA000C08BF7047A6
:100BB00043F0964301464FF000001CE050EA01026A
:100BC00008BF70474FF000030AE000BF50EA01027F
:100BD00008BF704711F0004302D5404261EB41016C
:100BE0005FEA010C02BF84460146002043F0B64391
:100BF00008BFA3F18053A3F50003BCFA8CF2083AB6
:100C0000A3EBC25310DB01FA02FC634400FA02FCBE
:100C1000C2F12002BCF1004F20FA02F243EB0200C5
:100C200008BF20F00100704702F1200201FA02FC27
:100C3000C2F1200250EA4C0021FA02F243EB02001A
:100C400008BF20EADC7070474FF0FF0C1CEAD0525E
:100C50001EBF1CEAD15392EA0C0F93EA0C0F6FD01F
:100C60001A4480EA010C400218BF5FEA41211ED0FD
:100C70004FF0006343EA501043EA5111A0FB0131E9
:100C80000CF00040B1F5000F3EBF490041EAD371BE
:100C90005B0040EA010062F17F02FD2A1DD8B3F13A
:100CA000004F40EBC25008BF20F00100704790F0A9
:100CB000000F0CF0004C08BF49024CEA502040EAFB
:100CC00051207F3AC2BFD2F1FF0340EAC2507047C1
:100CD00040F400004FF00003013A5DDC12F1190FFF
:100CE000DCBF00F000407047C2F10002410021FA71
:100CF00002F1C2F1200200FA02FC5FEA310040F189
:100D0000000053EA4C0308BF20EADC70704792F001
:100D1000000F00F0004C02BF400010F4000F013A39
:100D2000F9D040EA0C0093F0000F01F0004C02BF34
:100D3000490011F4000F013BF9D041EA0C018FE7A3
:100D40000CEAD15392EA0C0F18BF93EA0C0F0AD0A9
:100D500030F0004C18BF31F0004CD8D180EA0100CF
:100D600000F00040704790F0000F17BF90F0004F68
:100D7000084691F0000F91F0004F14D092EA0C0F4A
:100D800001D142020FD193EA0C0F03D14B0218BFDD
:100D9000084608D180EA010000F0004040F0FE4023
:100DA00040F40000704740F0FE4040F440007047BF
:100DB0004FF0FF0C1CEAD0521EBF1CEAD15392EA3E
:100DC0000C0F93EA0C0F69D0A2EB030280EA010C2E
:100DD00049024FEA402037D04FF0805343EA1111C7
:100DE00043EA10130CF000408B4238BF5B0042F125
:100DF0007D024FF4000C8B4224BF5B1A40EA0C00CA
:100E0000B3EB510F24BFA3EB510340EA5C00B3EBFB
:100E1000910F24BFA3EB910340EA9C00B3EBD10FE9
:100E200024BFA3EBD10340EADC001B0118BF5FEA3B
:100E30001C1CE0D1FD2A3FF650AF8B4240EBC25064
:100E400008BF20F0010070470CF0004C4CEA502025
:100E50007F32C2BFD2F1FF0340EAC250704740F474
:100E600000004FF00003013A37E792F0000F00F066
:100E7000004C02BF400010F4000F013AF9D040EAE4
:100E80000C0093F0000F01F0004C02BF490011F478
:100E9000000F013BF9D041EA0C0195E70CEAD15370
:100EA00092EA0C0F08D142027FF47DAF93EA0C0F57
:100EB0007FF470AF084676E793EA0C0F04D14B023B
:100EC0003FF44CAF08466EE730F0004C18BF31F0ED
:100ED000004CCAD130F000427FF45CAF31F00043E7
:100EE0007FF43CAF5FE700BF4FF0FF3C06E000BF80
:100EF0004FF0010C02E000BF4FF0010C4DF804CDA3
:100F00004FEA40024FEA41037FEA226C18BF7FEAB2
:100F1000236C11D001B052EA530C18BF90EA010FB4
:100F200058BFB2EB030088BFC81738BF6FEAE17043
:100F300018BF40F0010070477FEA226C02D15FEADF
:100F4000402C05D17FEA236CE4D15FEA412CE1D04B
:100F50005DF8040B704700BF844608466146FFE712
:100F60000FB5FFF7C9FF002848BF10F1000F0FBDF4
:100F70004DF808EDFFF7F4FF0CBF012000205DF8ED
:100F800008FB00BF4DF808EDFFF7EAFF34BF012072
:100F900000205DF808FB00BF4DF808EDFFF7E0FF0B
:100FA00094BF012000205DF808FB00BF4DF808ED5C
:100FB000FFF7D2FF94BF012000205DF808FB00BFBF
:100FC0004DF808EDFFF7C8FF34BF012000205DF8A1
:100FD00008FB00BF4FEA4002B2F1FE4F0FD34FF0C3
:100FE0009E03B3EB12620DD94FEA002343F0004396
:100FF00010F0004F23FA02F018BF404270474FF044
:101000000000704712F1610F01D1420205D110F0CA
:10101000004008BF6FF0004070474FF0000070477D
:1010200042000ED2B2F1FE4F0BD34FF09E03B3EB52
:10103000126209D44FEA002343F0004323FA02F07E
:1010400070474FF00000704712F1610F01D142026A
:1010500002D14FF0FF3070474FF00000704700BFE3
:1010600053B94AB9002908BF00281CBF4FF0FF310F
:101070004FF0FF3000F07AB9ADF1080C6DE904CE05
:1010800000F006F8DDF804E0DDE9022304B0704763
:101090002DE9F0478C460E460446089D002B50D1A2
:1010A0008A4217466CD9B2FA82FEBEF1000F0BD00D
:1010B000CEF1200C01FA0EF620FA0CFC02FA0EF723
:1010C0004CEA060C00FA0EF43A0CBCFBF2F9BBB287
:1010D00002FB19CC09FB03FA4FEA144848EA0C4614
:1010E000B2450AD9F61909F1FF3180F02581B245E0
:1010F00040F22281A9F102093E44A6EB0A06B6FBA2
:10110000F2F002FB106600FB03F3A4B244EA0644CB
:10111000A34209D9E41900F1FF3280F00B81A34208
:1011200040F2088102383C440021E41A40EA0940B8
:10113000002D62D0002324FA0EF42C606B60BDE811
:10114000F0878B4207D9002D55D0002185E841005A
:101150000846BDE8F087B3FA83F1002940F08F809C
:10116000B34202D3824200F2FC80841A66EB03068B
:101170000120B446002D40D085E81010BDE8F0876E
:1011800012B90127B7FBF2F7B7FA87FEBEF1000FDD
:1011900035D10121F61B4FEA174C1FFA87F8B6FB31
:1011A000FCF20CFB126608FB02F0230C43EA064635
:1011B000B04207D9F61902F1FF3302D2B04200F271
:1011C000D2801A46361AB6FBFCF00CFB106608FB00
:1011D00000F8A3B243EA0644A04507D9E41900F198
:1011E000FF3302D2A04500F2B9801846A4EB0804F0
:1011F00040EA02409CE729462846BDE8F08707FA06
:101200000EF7CEF1200326FA03F24FEA174CB2FB99
:10121000FCF11FFA87F80CFB112206FA0EF620FAF1
:1012200003F301FB08F933431E0C46EA0246B145BD
:1012300000FA0EF409D9F61901F1FF3280F08C8022
:10124000B14540F2898002393E44A6EB0906B6FB5F
:10125000FCF00CFB106200FB08F99EB246EA024665
:10126000B14507D9F61900F1FF3371D2B1456FD9F5
:1012700002383E44A6EB090640EA01418FE7C1F17E
:10128000200722FA07F88B4048EA030326FA07F4FE
:101290004FEA134EB4FBFEF91FFA83FC0EFB194410
:1012A0008E4020FA07F809FB0CFA48EA06084FEAD4
:1012B000184646EA0444A24502FA01F200FA01F691
:1012C00008D9E41809F1FF3044D2A24542D9A9F166
:1012D00002091C44A4EB0A04B4FBFEF00EFB10440C
:1012E00000FB0CFC1FFA88F848EA0444A44507D91F
:1012F000E41800F1FF3E29D2A44527D902381C4446
:1013000040EA0940A0FB0289A4EB0C0CCC45C24684
:10131000CE4615D312D055B1B6EB0A036CEB0E06D0
:1013200006FA07F7CB401F43CE402F606E600021C6
:10133000BDE8F0871046F7E68946DEE64645EAD284
:10134000B8EB020A69EB030E0138E4E77046D7E711
:1013500018468FE78146BDE7114676E702383C44E0
:1013600044E7084606E7023A3E442BE7704700BFD1
:1013700038B50E4B054618784FF47A73B3FBF0F38B
:101380000B4A1068B0FBF3F000F0ECFA044658B9D1
:101390000F2D09D8024629464FF0FF3000F0A0FA81
:1013A000044B20461D6038BD012038BD00000020E0
:1013B000A000002004000020074A08B5136803209D
:1013C00043F01003136000F079FA0F20FFF7D0FF0D
:1013D00004F0CEFA002008BD00200240034A044B6E
:1013E00011681B780B441360704700BFA0530020A6
:1013F00000000020014B1868704700BFA053002078
:101400000368D86C70477047036810B55A68044683
:10141000900627D51A68910724D5A26AD2065EBF26
:10142000A26A42F40072A2629A6802F46022B2F5E3
:10143000602F10D1227B72B95A6822F020025A60C4
:10144000A36A23F48073A362A36ADB045EBFA36A6A
:1014500043F00103A362204604F0E0F86FF01202AB
:1014600023681A6023685A68100630D51A68510735
:101470002DD5A26AD2065EBFA26A42F40052A262D1
:101480009A6802F4E042B2F5E04F0AD05A6850057B
:1014900016D49A6802F46022B2F5602F10D1227B34
:1014A00072B95A6822F080025A60A36A23F480530A
:1014B000A362A36AD9055EBFA36A43F00103A362D6
:1014C000204600F0FAF96FF00C0223681A602368D6
:1014D0005A6852060DD51B68DB070AD5A36A204659
:1014E00043F48033A362FFF78EFF6FF0010223689D
:1014F0001A6010BD002373B5019390F82430012BBE
:1015000074D001234D6880F82430062D02684FEA1C
:1015100085030C6825D82B441F25566B053B9D4041
:1015200026EA050504FA03F32B435363092C4FEA1B
:1015300044038D682FD907262344D1681E3B9E4063
:1015400021EA060105FA03F30B43D360A4F110036B
:10155000012B2BD90023002280F82420184602B04A
:1015600070BD0C2D0BD82B441F25166B233B9D40C3
:1015700026EA050504FA03F32B431363D6E72B444D
:101580001F25D66A413B9D4026EA050504FA03F370
:101590002B43D362CAE70726116923449E4021EA00
:1015A000060105FA03F30B431361CFE7104B9A4290
:1015B00016D193681B02CDD49368102C43F400031A
:1015C0009360C7D10B4B0C4A1B68B3FBF2F20A23A2
:1015D00053430193019B002BBCD0019B013BF8E7D7
:1015E000836A43F0200383620123B4E70223B5E753
:1015F00000240140A000002040420F00002373B5EA
:101600000193036804469A68D20702D5002002B00D
:1016100070BD9A6842F001029A60124B124A1B6830
:10162000B3FBF2F30193019BC3B9FFF7E3FE064658
:1016300023689D6815F00105E8D1FFF7DBFE801BEC
:101640000228F5D9A36A84F8245043F01003A3625A
:10165000E36A012043F00103E362D8E7019B013B09
:10166000E0E700BFA000002040420F0090F82430C7
:1016700010B5012B044658D0012380F82430FFF721
:10168000BDFF00284DD1A36A294A23F4706323F0DB
:10169000010343F48073A3622368934204D1254974
:1016A0004A6812F4702F32D1A26A22F48012A26228
:1016B0005A68520541BFA26A22F4405242F4805255
:1016C000A262A26A12F480521CBFE26A22F00602F1
:1016D000E262002284F824206FF002021A605A6845
:1016E00042F020025A609A6802F46022B2F5602F3C
:1016F00013D10F4A934205D1A2F58062526812F4C9
:10170000702F0AD19A6842F4A0029A6010BDA26AB2
:1017100042F48012A2624A68CBE79A6842F48012CF
:10172000F3E7002384F8243010BD022010BD00BF71
:10173000002801400024014038B5036804469A6837
:10174000D20701D4002038BD9A6822F001029A60C5
:10175000FFF750FE054623689B68DB07F2D5FFF7CD
:1017600049FE401B0228F6D9A36A012043F010036A
:10177000A362E36A43F00103E36238BD70B5044637
:10178000002871D0836A23B9C36280F8243004F042
:1017900017F92046FFF7D0FFA36A13F0100FA36AD2
:1017A00064D1002862D1E16923F48853626823F090
:1017B000020343F002030A43A168A362237BB1F54D
:1017C000807F42EA430238D0012914BF06464FF415
:1017D0008076257D012D07D1002B30D1A369013BF7
:1017E00046EA433545F400662368B1F5807F5D68BD
:1017F00025F4694545EA06055D609E681D4D05EACC
:10180000060545EA02059D6001D0012920D1216924
:1018100001390905DD6A25F470052943D962996803
:10182000154B0B409A4215D10023E362A36A23F0C3
:10183000030343F00103A36270BD0E46C9E7A36A28
:1018400043F02003A362E36A43F00103E362CBE7C2
:101850000021DFE7A36A23F0120343F01003A36221
:10186000E36A43F00103E362012070BD43F010031B
:10187000A362F9E7FDF7E1FFFE0E1FFF90F82430A9
:1018800010B5012B044616D0012380F82430FFF751
:1018900053FF60B92268536823F020035360A36AA2
:1018A00023F4885323F0010343F00103A3620023D0
:1018B00084F8243010BD022010BD7047074A000292
:1018C000D36800F4E06023F4E0631B041B0C43F0D6
:1018D000BF6343F400330343D360704700ED00E07F
:1018E000174B30B5DC68C4F30224C4F10703251D8F
:1018F000042B28BF0423062D4FF0010598BF0024B8
:1019000005FA03F303F1FF3388BF033C1940A140FC
:1019100005FA04F4013C2240002842EA01024FEAA1
:101920000212A9BF00F16040064BD2B200F561403F
:10193000BBBF00F00F00D2B280F800231A5430BDB4
:1019400000ED00E014ED00E0002808DB012342096F
:1019500000F01F0003FA00F0014B43F8220070472B
:1019600000E100E00138B0F1807F0AD2F021064B9F
:10197000064A586082F823100020072298601A60F7
:1019800070470120704700BF10E000E000ED00E06C
:1019900090F8213010B5022B03D00423836301207B
:1019A00010BD03681A6822F00E021A601A6822F04D
:1019B00001021A60294A934224D902F562729342C5
:1019C00019D01432934218D01432934217D01432E3
:1019D00093420CBF4FF480534FF48033204A53603E
:1019E0000123002480F82130436B80F820409BB312
:1019F0009847204610BD0123F0E71023EEE74FF48F
:101A00008073EBE717498B4216D014318B4215D007
:101A100014318B4214D014318B4214D014318B42C8
:101A200014D014318B4214D0934214BF4FF480333E
:101A30004FF080730C4AD2E70123FBE71023F9E74C
:101A40004FF48073F6E74FF48053F3E74FF480339D
:101A5000F0E74FF48013EDE7184610BD8000024018
:101A6000000402400800024000000240114AD3680E
:101A700013F0100305D01049CB6943F00203CB618A
:101A80001023D268500706D50B4943F00403CA69F6
:101A900042F00102CA61074AD169C90708D5064860
:101AA000C16941F00401C161D16921F00101D16135
:101AB000D360704700200240A8530020064B1869ED
:101AC00010F0800007D0054A5A6002F188325A604F
:101AD0001869C0F3C0107047002002402301674519
:101AE000034A0020136943F080031361704700BF6D
:101AF00000200240F8B50646FFF77CFC114C074673
:101B00002546E368D80712D4E368990644BF20232A
:101B1000E360EB68DA0606D4EB69DB0703D4E86818
:101B200010F0040002D0FFF7A1FF0120F8BD731CE4
:101B3000E7D00EB90320F8BDFFF75CFCC01B86425E
:101B4000DFD2F7E7002002402DE9F84F1F4C9946FD
:101B5000237E0546012B0F46904633D001234CF2DD
:101B600050302376FFF7C6FF40BB012D03D0022D76
:101B70000CBF022504250026B246DFF854B032011E
:101B800040464946FEF754FBC4F81CA0DBF8103071
:101B900080B243F00103CBF8103027F816004CF266
:101BA0005030FFF7A7FFDBF8103023F00103CBF82C
:101BB000103018B90136F3B29D42E0D800232376E5
:101BC000BDE8F88F0220BDE8F88F00BFA8530020C1
:101BD000002002400022064BDA61064B1A6942F0EF
:101BE00004021A611A6942F040021A61704700BF8C
:101BF000A8530020002002400022064BDA61064B69
:101C00001A6942F002021A6158611A6942F04002F0
:101C10001A617047A8530020002002402DE9F041CE
:101C2000234D07462B7E8846012B3DD001240368B7
:101C30002C76022B4CF2503013D1FFF75BFF20B112
:101C4000012000232B76BDE8F081FFF7C3FF4CF2A3
:101C50005030FFF74FFF174A136923F00403136155
:101C6000EFE7FFF747FF0028EAD14FF0FF33C8F84E
:101C700000302046BE680F4CFA68BB6803EBC223F5
:101C80009E42DED23046FFF7B7FF4CF25030FFF7EE
:101C900031FF236923F00203236110B1C8F800600B
:101CA000CFE706F50066E7E70220BDE8F08100BF58
:101CB000A8530020002002402DE9F74F00242646BB
:101CC000664BDFF8A8E1DFF8A8C10A6832FA06F52A
:101CD00002D103B0BDE8F08F4FF0010808FA06F812
:101CE00002EA080290457FD14D68122D00F0AA80CB
:101CF00000F28380022D00F0A28077D8002D00F042
:101D00008980012D00F099804FF00F09FF2A93BFC1
:101D1000824606F18045083DD0F800B092BFB5007C
:101D2000D0F804B0AD0009FA05F82BEA080804FA67
:101D300005F588BF00F1040A48EA0505CAF8005015
:101D4000D1F804A01AF0805F4ED0454D444FAD69E4
:101D500026F0030845F00105BD61BD6908F1804822
:101D600005F00105019508F5803806F0030B019D8B
:101D70004FEA8B0BD8F8085009FA0BF925EA090944
:101D8000384DA84263D005F58065A84261D005F5BD
:101D90008065A8425FD005F58065A8420CBF032589
:101DA000042505FA0BF545EA0905C8F808501D6831
:101DB0001AF4803F14BF154395431D605D681AF403
:101DC000003F14BF154395435D609D681AF4801F62
:101DD00014BF154395439D60DD681AF4001F14BFBE
:101DE0002A4325EA0202DA6001366EE7032D22D08B
:101DF000112D89D1CC68043486E71B4FBD4209D030
:101E000012D8DFF870904D4504D009F580394D4562
:101E10007FF47AAF8C68C4B1012C0CBFC0F810807D
:101E2000C0F8148008246FE77545F3D06545F1D0FC
:101E3000DFF84490EBE7002466E7CC6864E7CC6801
:101E4000083461E7CC680C345EE704245CE70025C5
:101E5000A7E70125A5E70225A3E700BF000401408D
:101E60000010024000080140000021100000311065
:101E70000000321000001110000022108368194287
:101E800014BF0120002070470AB1016170470904A6
:101E9000FBE7C3680B4214BF41610161704700005A
:101EA0002DE9F341044618B9012002B0BDE8F081E4
:101EB0000368DB0714D423689F075FD423681907DE
:101EC00000F1968023685A0700F1C080E26A002A78
:101ED00040F02E81226A002A40F081810020E4E750
:101EE0008E4D6B6803F00C03042B07D06B6803F076
:101EF0000C03082B09D16B68DE0306D52B689D0304
:101F0000D9D5A368002BD6D1CEE7A368B3F5803F1F
:101F100010D12B6843F480332B60FFF76BFA064631
:101F20002B689803C7D4FFF765FA801B6428F7D99C
:101F30000320BAE79BB92B6823F480332B602B680E
:101F400023F480232B60FFF755FA06462B6899038C
:101F5000B1D5FFF74FFA801B6428F7D9E8E7B3F54E
:101F6000A02F2B6803D143F480232B60D1E723F407
:101F700080332B602B6823F48023CDE7674D6B689B
:101F800013F00C0F07D06B6803F00C03082B10D173
:101F90006B68DA030DD42B689B0702D56369012BAC
:101FA00082D12B68A26923F0F80343EAC2032B60B5
:101FB00084E762695A4B6AB101221A60FFF71AFA84
:101FC00006462B689F07ECD4FFF714FA801B022803
:101FD000F7D9ADE71A60FFF70DFA06462B689807A8
:101FE0007FF56CAFFFF706FA801B0228F6D99FE752
:101FF000E2694A4D4B4BDAB101221A60FFF7FAF958
:1020000006466B6A9B070DD54FF4FA52464B1B6888
:10201000B3FBF2F3019300BF019B5A1E0192002B08
:10202000F9D14FE7FFF7E6F9801B0228E9D97FE7EE
:102030001A60FFF7DFF906466B6A9F077FF542AF2C
:10204000FFF7D8F9801B0228F6D971E7334DEB6909
:10205000DE0024D40127EB6943F08053EB61EB6988
:1020600003F080530093009B304E3368D80518D599
:102070002369012B26D12B6A43F001032B62FFF762
:10208000B9F941F2883680462B6A9A073FD5002F6E
:102090003FF41CAFEB6923F08053EB6116E7002798
:1020A000E2E7336843F480733360FFF7A3F98046B7
:1020B0003368D905DCD4FFF79DF9A0EB080064284C
:1020C000F6D935E7ABB92B6A41F2883823F0010322
:1020D0002B622B6A23F004032B62FFF78BF9064671
:1020E0002B6A9B07D3D5FFF785F9801B4045F7D9AD
:1020F0001EE7052B2B6A03D143F004032B62BAE7DA
:1021000023F001032B622B6A23F00403B6E7FFF7E9
:1021100071F9A0EB0800B042B6D909E700100240FF
:102120000000424280044242A000002000700040B3
:10213000584D6B68D80308D56B6803F00C03082B67
:1021400003D1EB6AD9033FF5AFAE022A33D12B6836
:10215000DA0006D5EB6A626B03F0F00393427FF47A
:10216000A3AE00234C4E3360FFF744F907462B68BB
:102170001B011AD4EB6A626B23F0F0031343EB628A
:10218000EB6A226B23F470631343EB620123336029
:10219000FFF730F906462B681F013FF59BAEFFF7AE
:1021A00029F9801B6428F6D9C2E6FFF723F9C01B82
:1021B0006428DCD9BCE60022EB6A23F48033EB62AE
:1021C000354B1A60FFF716F906462B6818017FF5A4
:1021D00081AEFFF70FF9801B6428F6D9A8E62D4BD6
:1021E00059681D4601F00C01082941D000232B4EEF
:1021F000022A33602FD1FFF7FDF807462B689901BB
:1022000023D4636AB3F5803F09D1EA6A61680A435F
:10221000EA62EA6AE16822F00F020A43EA62A16A0E
:102220006A680B4322F4741213436B60012333601A
:10223000FFF7E0F804462B689A013FF54FAEFFF731
:10224000D9F8001B0228F6D972E6FFF7D3F8C01BB5
:102250000228D3D96CE6FFF7CDF804462B689B0122
:102260007FF53CAEFFF7C6F8001B0228F6D95FE603
:10227000012A3FF419AE5868636A00F480329A422A
:102280007FF412AEA36A00F47010C01A18BF0120C8
:102290000BE600BF0010024068004242600042426C
:1022A000F0B589B06A462A4B03F108051446186850
:1022B0005968083303C4AB422246F7D118689B889B
:1022C0002060A380234B04AC03F11005224618685C
:1022D0005968083303C2AB421446F7D11E494B6814
:1022E00003F00C02082A31D1C3F3834208A8024448
:1022F000DB0312F8206C26D5CB6A03F00F030344EE
:1023000013F8102CCB6A13F4803F144B16D0CF6A0D
:10231000CC6AC4F303240234A4FB0645A4FB0301E6
:1023200003FB0511C7F303130133A3FB0223FEF7DD
:1023300097FE0D2E00D1400809B0F0BD03FB06F05A
:10234000B0FBF2F0F5E706487043F5E70348F3E722
:10235000A06F0008AE6F00080010024000127A0063
:1023600000093D002DE9F0410D46044610B9012059
:10237000BDE8F081454A136803F007038B4229D377
:1023800021688E0731D4CA0744D4404A136803F049
:1023900007039D4267D322683D4D12F0040F6ED1B2
:1023A000130706D56B68226923F4605343EAC2031E
:1023B0006B60FFF775FF6B68364AC3F30313D35C9A
:1023C000D840354B1860354B1868FEF7D1FF002018
:1023D000BDE8F081136823F007030B431360136813
:1023E00003F007039942C2D1CAE7294B11F0040F49
:1023F0001EBF5A6842F4E0625A60080742BF5A683A
:1024000042F460525A605A68A06822F0F002024317
:102410005A60B8E762681E4E012A33681BD113F474
:10242000003FA4D0736841F2883823F003031343BC
:102430007360FEF7DFFF07467368626803F00C0302
:10244000B3EB820FA1D0FEF7D5FFC01B4045F3D9F7
:102450000320BDE8F081022A02D113F0007FE0E7FB
:1024600013F0020FDDE7136823F007032B4313601B
:10247000136803F007039D427FF479AF8BE76B6825
:10248000E16823F4E0630B436B6089E700200240BE
:102490000010024055730008A00000200400002036
:1024A000044B054A5B68C3F30223D35C034A1068FC
:1024B000D84070470010024065730008A00000205B
:1024C000044B054A5B68C3F3C223D35C034A10681C
:1024D000D84070470010024065730008A00000203B
:1024E00003682DE9F34113F0010F0546574C1FD047
:1024F000E369DA0047D40127E36943F08053E361DD
:10250000E36903F080530193019B514E3368DB056F
:102510003BD5236A13F440734BD1236A6A6823F4D2
:102520004073134323621FB1E36923F08053E361D7
:102530002A68930705D56368A96823F440430B43D1
:102540006360570705D5E36AE96823F400330B435A
:10255000E362160705D5E36A2A6923F4802313434F
:10256000E362E36A980366D4E36A590363D4286894
:1025700010F010001AD06368EA6923F48003134353
:102580006360002012E00027BFE7336843F48073E4
:102590003360FEF72FFF80463368D805B9D4FEF7C5
:1025A00029FFA0EB08006428F6D9032002B0BDE89B
:1025B000F0816A6802F440729342AED00120254A4D
:1025C000236A1060002023F4407110602162D90753
:1025D000A3D5FEF70FFF41F288380646236A9A0713
:1025E0009BD4FEF707FF801B4045F7D9DDE7236842
:1025F000A96913F0806F04D0E26A02F0F0028A4207
:1026000022D1E36A23F0F0030B43E362E36A6A69D1
:1026100023F4704313430122E3620F4B1A60FEF769
:10262000E9FE064623689A00A1D4FEF7E3FE801B6C
:102630006428F7D9B9E72368DB00D8D5E36A6A696B
:1026400003F47043934292D00120AFE700100240A0
:102650000070004040044242700042420368002083
:10266000DA6842F00102DA609A6802F00702062A8C
:102670001EBF1A6842F001021A6070470368DA68E8
:1026800022F00102DA6041F21112196A114208D1F6
:1026900040F24442196A114202BF1A6822F0010254
:1026A0001A60002070477047704770477047036892
:1026B00010B51A69044691070ED5DA6892070BD552
:1026C0006FF002021A6101229B6902779B0777D0A3
:1026D000FFF7EAFF0023237723681A69500710D514
:1026E000DA6851070DD56FF004021A6102229B6966
:1026F000227713F4407F204668D0FFF7D5FF0023F0
:10270000237723681A6912070FD5DA6810070CD5EA
:102710006FF008021A610422DB69227799072046CC
:102720005AD0FFF7C1FF0023237723681A69D20626
:1027300010D5DA68D0060DD56FF010021A610822A4
:10274000DB69227713F4407F20464BD0FFF7ACFFC4
:102750000023237723681A69D10708D5DA68D207DE
:1027600005D56FF0010220461A6100F079FD23685B
:102770001A69100608D5DA68110605D56FF08002CF
:1027800020461A6100F0AFF823681A69520608D58E
:10279000DA68500605D56FF0400220461A61FFF74F
:1027A00085FF23681A69910622D5DA6892061FD53B
:1027B0006FF020022046BDE810401A6100F092B888
:1027C000FFF771FF2046FFF770FF83E7FFF76BFF0E
:1027D0002046FFF76AFF92E7FFF765FF2046FFF705
:1027E00064FFA0E7FFF75FFF2046FFF75EFFAFE75C
:1027F00010BD00001E4A036890420ED0B0F1804F19
:102800000BD0A2F59432904207D002F5806290423C
:1028100003D002F58062904219D14A6823F0700318
:102820001343134A90420ED0B0F1804F0BD0A2F563
:102830009432904207D002F58062904203D002F5B4
:102840008062904203D1CA6823F4407313434A69FB
:1028500023F08003134303608B68C3620B688362B9
:10286000034B984204BF0B69036301234361704724
:10287000002C014010B50446A0B190F83D3003F0A3
:10288000FF021BB980F83C2003F0D0F80223206837
:1028900084F83D30211DFFF7ADFF0123002084F8AF
:1028A0003D3010BD012010BD90F83C3030B5012BFB
:1028B0004FF0020314D0046880F83D306268A368CA
:1028C0000D68496822F0700223F080030B432A430D
:1028D0006260A360012380F83D30002380F83C3023
:1028E000184630BD704770470368DA6822F490726A
:1028F000DA605A6922F001025A61202380F83A30E6
:102900007047000038B505460368C1681A69192484
:1029100022F440520A431A6182680069D96802436E
:10292000686921F4B05121F00C0102430A43DA60D6
:102930005A69A96922F440720A435A610D4A9342C6
:1029400014D1FFF7BDFD60436C686422A400B0FBA6
:10295000F4F0B0FBF2F402FB14031B013233B3FBBF
:10296000F2F3296803EB04138B6038BDFFF798FD81
:10297000E9E700BF0038014010B5044640B390F8C5
:10298000393003F0FF021BB980F8382003F082F8D9
:102990002423226884F83930D368204623F4005376
:1029A000D360FFF7AFFF236800201A6922F490423A
:1029B0001A615A6922F02A025A61DA6842F4005216
:1029C000DA602023E06384F8393084F83A3010BDAF
:1029D000012010BD7047704790F83A3010B5222B97
:1029E00036D183680169B3F5805F0268836A23D1B9
:1029F0005268E9B9C2F3080223F8022B8362C48D3E
:102A0000013CA4B2C4858CB90368DA6822F02002C4
:102A1000DA60DA6822F48072DA605A6922F0010220
:102A20005A61202380F83A30FFF7D5FF002010BD0F
:102A3000D2B223F8012BE1E721B9591C5268816217
:102A40001A70DCE75268591C816202F07F02F7E7D6
:102A5000022010BD70470000036870B51A68044674
:102A60001607D9685D6907D196065AD58D0658D5DF
:102A7000BDE87040FFF7B0BF15F0010502D111F4B9
:102A8000907F4ED0D30705D5CE0542BFE36B43F010
:102A90000103E363500704D51DB1E36B43F0020368
:102AA000E363930704D51DB1E36B43F00403E363D1
:102AB000160704D51DB1E36B43F00803E363E36B32
:102AC000002B66D0950604D5880602D52046FFF770
:102AD00083FF236820465D69E26B110702D415F07D
:102AE00040051AD0FFF700FF23685A69520610D537
:102AF0005A69606B22F040025A6150B1254B436322
:102B0000FEF746FF002844D0606BBDE87040436B81
:102B100018472046FFF79EFF70BDFFF79BFFE56358
:102B200070BD160627D50D0625D594F83920212A23
:102B30002FD1A268B2F5805F226A17D11188C1F344
:102B400008015960216979B902322262E28C013AA6
:102B500092B2E284EAB9DA6822F08002DA60DA68D6
:102B600042F04002DA6070BD0132EEE7511C216292
:102B700012785A60EAE750060BD54A0609D5DA689A
:102B8000204622F04002DA60202384F83930FFF733
:102B900021FF70BD992B000808B50023406AC3854A
:102BA000C384FFF757FF08BD0B8870B5052B0D4692
:102BB0002ED140F2CE71C378027942EA0322531E2D
:102BC0009BB28B4224D80023467881782B80012346
:102BD00003702B8812F0070F4FEAD20418BF01349C
:102BE0000133E4B22B8044702B8841EA0621013383
:102BF00001312B8089B20023023002F0EFFD18B1C1
:102C0000BDE8704000F0BCB92A8814442C8070BD27
:102C1000032070BD0B8813B5052B1DD10379DBB9DB
:102C2000C478621ED2B2FD2A16D9FF2C8DF8053069
:102C300008BF01238DF8043001234278817801A870
:102C400041EA022101311A4689B202F0C7FD28B1DA
:102C500000F096F902B010BD0320FBE7FAE70B88FD
:102C600010B5052B0C4624D9C378027942EA032219
:102C700012F0070F4FEAD20302F1FF3118BF013300
:102C8000B1F5F66FDBB214D24179994211D1437894
:102C90008178063041EA03210131012389B202F033
:102CA0009DFD18B1BDE8104000F06AB905222280F0
:102CB00010BD032010BD0B8870B5052B0D462DD11E
:102CC00040F2CE71C378027942EA0322531E9BB2CE
:102CD0008B4223D80023467881782B80022303700F
:102CE0002B8812F0070F4FEAD20418BF01340133CA
:102CF000E4B22B8044702B8841EA06210133013174
:102D00002B8089B2023002F0B3FD18B1BDE87040EB
:102D100000F036B92A8814442C8070BD032070BDA1
:102D200008B50B88052B0FD143788178033041EA31
:102D30000321012301311A4689B202F0E9FC28B1CE
:102D4000BDE8084000F01CB9032008BD08BD0B8891
:102D500010B5052B0C461DD9C378027942EA03222F
:102D6000531E772B16D853004179DBB2994211D10B
:102D700043788178063041EA03210131012389B289
:102D800002F0C6FC18B1BDE8104000F0F9B8052209
:102D9000228010BD032010BDF8B50B880C46052B12
:102DA00024D1027995B26B1E7C2B1FD803260023F9
:102DB0004778817823800670268852000136268065
:102DC0004270228841EA072101320131228089B212
:102DD0002A46023002F09CFC18B1BDE8F84000F031
:102DE000CFB8228802EB45052580F8BD0320F8BD49
:102DF0002DE9F8430B880446092B0D463CD9C378CE
:102E0000077947EA03277B1E7C2B38D8C379027ADF
:102E100042EA0322531E782B31D8437AB3EB420F98
:102E20002DD14379817990F8019041EA0321013154
:102E30008678012389B20A3002F06AFC034608BB97
:102E40001722288022702A884FEA470801322A80F8
:102E500084F801802A8846EA0921013201312A805A
:102E600089B23A46A01C02F053FC58B92B8898440A
:102E7000A5F80080BDE8F8830020BDE8F8830320B2
:102E8000BDE8F883BDE8F84300F07AB80B8870B568
:102E9000052B0C4624D1C378027942EA0322531E43
:102EA0007B2B1DD800234678817823800423037070
:102EB00023885500013323804570238841EA062189
:102EC00001330131238089B2023002F0CBFB18B10B
:102ED000BDE8704000F054B822881544258070BDCC
:102EE000032070BD38B50D46054B06491C880130DE
:102EF0002246013403F0FCF82C80002038BD00BFCE
:102F00004401002024010020082AF8B505D9104BFF
:102F1000104A3821104803F0B5F8012404FA02F2EF
:102F2000CE08013A751C92B2A1EBC604475D02FAC5
:102F300004F4825D01F0070142EA072222EA04025A
:102F40008B4013431BB28355C3F307234355F8BD8E
:102F5000D56F0008C66F0008E26F000810B5CB08F7
:102F6000C418C05C0123647801F0070140EA042022
:102F700003FA02F20841013A1040C0B210BD00004D
:102F800007289ABF014B185C04207047BE6F0008E9
:102F900038B50446084611461A46431EDBB2F62BE6
:102FA00027D8164B187024BB154D164B1D60164DB7
:102FB000164B1D60164D174B1D60174B174D1D60AE
:102FC000174B1C60174C184B1C60184C184B1C609E
:102FD000184C194B1C609DF8103000F071F9044634
:102FE00028B900F0B5F830B10122144B1A70204610
:102FF00038BD0224FBE70324F9E700BF5D01002090
:1030000009330008540100202D3300085801002026
:10301000B93300084C010020480100204933000862
:103020005001002041340008D0530020D53400085E
:10303000C853002069350008CC5300200800002048
:1030400010B5064C2378012B05D1054B1B6898471A
:103050000020207010BD062010BD00BF0800002019
:1030600054010020304BF7B51C78002C59D10DF1DC
:10307000070000F081F80128034601D0002405E094
:103080009DF80720012A04D0022A17D0204603B059
:10309000F0BD264D264B274A1B68274928469847EE
:1030A00004460028EAD1254A2B7812789A4201D0AA
:1030B000002BE3D1022000F053F8E7E71E4D204E2D
:1030C0002868204F027833701F4B3A7013F8341081
:1030D0004FEAC40E31B18A421FD173445B6815496F
:1030E00098473070114B1B78002BC7D03178114BAB
:1030F00059B101221A803A78286862F07F02027082
:103100001A882868541C1C808154104A2968146845
:103110001A880A4B1878A047B0E70134102CD5D193
:10312000E0E70624B2E700BF0800002064010020A9
:103130004801002066010020600100205D010020A0
:10314000460100205C0100200C0000204C01002002
:103150000022024B01201A70704700BF6901002055
:103160000123034A1370034A10701846704700BFCA
:103170006901002068010020054A13782BB1054B36
:103180001B7803700023137001231846704700BF9B
:10319000690100206801002038B50D46114CB8B116
:1031A00000224FF400611048FEF76EFE2268D368DB
:1031B00043F02003D36085B101224FF400610A4837
:1031C000FEF762FE2268D36843F08003D36038BD07
:1031D0002268D36823F02003ECE72268D36823F049
:1031E0008003F3E7145500200008014001207047D8
:1031F000024B1B6858600120704700BF1455002027
:10320000054B1A691B685B6812B90370012070478F
:1032100003F07F03F9E700BF14550020014B1B6842
:10322000184700BFC8530020014B1B68184700BF58
:10323000D0530020014B1880012070476C01002002
:103240000022024B02481A80FFF708BA6A010020E8
:10325000945500200148FFF711BA00BF9455002093
:103260000268084B9A420BD1074A138801339BB27C
:103270001380064A12889A4202D8054B1B681847E9
:10328000704700BF001400406A0100206C0100205C
:10329000CC530020FF2370B51C46074D074E014458
:1032A000884202D143EA042070BD10F8012B5A4035
:1032B000AB5C6340B45CF3E7087000080871000879
:1032C00070B50D4614461E4602F0B6F93346082284
:1032D00021462846FFF78AFF01280CD1B4F5964F06
:1032E0009DBF08486400B0FBF4F0232080B2FFF7D4
:1032F000A1FF012804D0032402F0A0F9204670BDEC
:103300000024F9E7A07F170008B502F095F9002125
:10331000054B01201970FFF73FFFFFF791FFBDE854
:10332000084002F08BB900BF6E01002008B502F022
:1033300083F900210846FFF72FFFFFF78BFFBDE859
:10334000084002F07BB900002DE9F041154D8046A0
:103350000E46174602F070F92B889BB2FF2B05D959
:10336000114B124AA121124802F08CFE2B889BB20D
:10337000032B05D8052402F061F92046BDE8F08151
:1033800029880C4C89B22046FFF784FF0028F1D130
:1033900014F8012B88F800202A88033A3A80346018
:1033A0000446E8E7740100204F7200080872000824
:1033B00074720008DC5300202DE9F04180460F466E
:1033C000164602F039F9194B1D78EDB2012D2AD1BC
:1033D000174C184A2580781E07F8018C1060228847
:1033E0001644B6B22680218889B2FFF753FF23889E
:1033F00011499BB25A1C92B22280C2B2CA5423888D
:10340000C0F307209BB25A1C92B22280C8540B4BC7
:10341000294600201D700024FFF7BEFE02F00EF9C1
:103420002046BDE8F0810524F8E700BF6E010020CA
:103430007601002070010020DC5300206F01002085
:103440001D4B07B51B782BB11C4B1D4AED211D48A8
:1034500002F018FE0DF10700FFF7D2FE1A4B1A78A2
:10346000032A22D8DFE802F01F02111F00221749A9
:103470000A800A8892B2501C80B208809DF807002A
:103480001349885402221A700DE0104A118889B23B
:10349000FF290ED813889BB2591C89B211809DF860
:1034A00007100B4AD154FFF7CBFE002003B05DF8A4
:1034B00004FB0322E7E700BF6F01002092720008BF
:1034C00016720008747200086E010020740100205A
:1034D000DC530020F8B51C4B1878C0B2012806D088
:1034E0001A4B1B4A4FF494711A4802F0CBFD1A4F45
:1034F0003B7803F0FF061BB1012E05D0002520E02C
:103500003146FFF749FEF9E7144A1488A4B27CB1AA
:103510001388134C013B9BB213801288114B1A8005
:1035200023681878FFF764FE236801332360E5E71A
:103530000320FFF715FE214605463046FFF72CFE17
:103540003C702846F8BD00BF6E01002010730008D3
:1035500027720008747200086F01002076010020B5
:10356000700100209000002038B5144B18781D46DB
:10357000C0B202280BD003281DD050B9FFF7F0FDD0
:103580000446FFF767FE012320462B7038BD01205B
:10359000F4E71A7802F0FF04002AF2D01A78022A1F
:1035A00009D01B78032B06D0054B064A4FF4B271A5
:1035B000054802F067FD0024E3E700BF6E0100202C
:1035C000AD720008397200087472000808B500F086
:1035D000E5FE002008BD00F1080343604FF0FF3214
:1035E000C3600361002382600360704700230361AE
:1035F000704743689A684B608A609A685160996026
:10360000036808610133036070470A6830B5531CD2
:103610000AD103695A684A6091608B6059600368F7
:1036200008610133036030BD00F108035C68256860
:10363000AA42EFD32346F9E74168826803698A60AA
:10364000826851605968884208BF5A60002202614E
:103650001A68013A1A60186870470000002382B0A7
:1036600001930D4B1B68013308D04FF0500383F3D7
:103670001188BFF36F8FBFF34F8FFEE74FF05003FA
:1036800083F31188BFF36F8FBFF34F8F019B002B24
:10369000FCD002B0704700BF8C00002006480068D4
:1036A000006880F3088862B661B6BFF34F8FBFF33E
:1036B0006F8F00DF00BF000008ED00E04FF0807367
:1036C00040F8043C054B21F0010140F8081C40F88B
:1036D0000C3C40F8202C4038704700BF5D36000895
:1036E000074B19680868B0E8F00F80F30988BFF34A
:1036F0006F8F4FF0000080F311884EF00D0E704771
:10370000B84F00204FF0500383F31188BFF36F8F41
:10371000BFF34F8F0A4A13680133012B13600DD199
:10372000084B1B6813F0FF0F08D04FF0500383F3D2
:103730001188BFF36F8FBFF34F8FFEE7704700BF55
:103740008C00002004ED00E0084A136843B94FF0F4
:10375000500383F31188BFF36F8FBFF34F8FFEE7E2
:10376000013B13600BB983F3118870478C00002074
:10377000EFF30980BFF36F8F0D4B1A6820E9F00F4C
:1037800010602DE908404FF0500080F3118800F0E0
:1037900077FF4FF0000080F31188BDE808401968FA
:1037A0000868B0E8F00F80F30988BFF36F8F7047A7
:1037B000B84F002008B54FF0500383F31188BFF3D2
:1037C0006F8FBFF34F8F00F02DFE18B14FF0805276
:1037D000024B1A60002383F3118808BD04ED00E05A
:1037E0000023084A084913600B604FF47A71074BB5
:1037F0001B68B3FBF1F30649013B0B600723136021
:10380000704700BF10E000E018E000E0A0000020DA
:1038100014E000E013B5274B00211A78D2B20192D0
:10382000FF221A701B78244ADBB28DF803309DF812
:10383000033003F0500313700722204B1A609DF8E9
:103840000300541E00060DD401B11A601A68032A41
:1038500011D04FF0500383F31188BFF36F8FBFF384
:103860004F8FFEE79DF8032001215200D2B28DF860
:1038700003202246E3E70024120202F4E0621A6009
:10388000019B0C4ADBB213700D4B1A6842F47002B4
:103890001A601A6842F070421A60FFF7A1FF094BE4
:1038A0001C60FFF7FBFE00F0EBFEFFF7D7FE2046A3
:1038B00002B010BD00E400E0780100207C0100208F
:1038C00020ED00E08C00002010B50F4B1A688242FA
:1038D00018D35C681919884201BF41681846091954
:1038E0005960446801198A4207D1084909688A4227
:1038F0001FBF51681268091941609842026018BFE1
:10390000186010BD1346E1E7B04F00208001002091
:103910002DE9F041044600F077FD3D493D4D0B682F
:10392000FBB93D4A002056070FBF44F6206307321B
:103930003A4B22F0070218BF9B1A1344384E083B3B
:1039400023F0070370603260586018600B60981AAB
:103950001360344B50601860334B18604FF00043D5
:103960002B602F68274216D1002C40D004F10803A9
:1039700058071CBF23F00703083363B12A4A1668AF
:103980009046B34207D8264A15686868834204D82F
:1039900009688D4207D1002429E02C68002CF7D05B
:1039A0002A462546F1E7296814681160C21A102AD0
:1039B0000FD9E818410708D04FF0500383F311885E
:1039C000BFF36F8FBFF34F8FFEE742606B60FFF76F
:1039D0007BFF6B681349F61A1F4300230868C8F879
:1039E0000060864238BF0E6008346F602B6000F0C4
:1039F000ABFD630708D04FF0500383F31188BFF38A
:103A00006F8FBFF34F8FFEE72046BDE8F08100BF08
:103A100080010020A44F002084010020A44F00203A
:103A2000B04F0020AC4F0020A84F002010B5044636
:103A300070B3184A50F8043C1268134208D14FF092
:103A4000500383F31188BFF36F8FBFF34F8FFEE7EF
:103A500050F8081C41B14FF0500383F31188BFF3B5
:103A60006F8FBFF34F8FFEE723EA020340F8043C59
:103A700000F0CAFC084A54F8043C1168A4F108009C
:103A80000B441360FFF720FFBDE8104000F05CBD61
:103A900010BD00BFA44F0020A84F002010B5044661
:103AA000FFF730FEA46BFFF74FFEB4FA84F0400935
:103AB00010BD70B51546026C0446866B42B90568A8
:103AC0009DB9406800F024FF65600136A66370BDB3
:103AD0006DB9806802F00CFBA368226C1344626825
:103AE000A360934201D32368A3600020EDE7C06880
:103AF00002F0FEFA236CE2685B4221681A448A42B3
:103B0000E2603EBF62689B18E360022DEDD10EB10A
:103B1000013EEAE73046D8E770B50446FFF7F2FD0C
:103B200094F8455004F124066DB2002D14DCFF23F7
:103B300084F84530FFF708FEFFF7E4FD94F84450A1
:103B400004F110066DB2002D12DCFF2384F844301E
:103B5000BDE87040FFF7F8BD636A002BE7D0304640
:103B600000F0E2FD08B100F069FE013D6DB2DCE756
:103B70002369002BE9D0304600F0D6FD08B100F0F3
:103B80005DFE013D6DB2DEE738B50D46044640B935
:103B90004FF0500383F31188BFF36F8FBFF34F8F44
:103BA000FEE7FFF7AFFD206CE36B22684343D118BB
:103BB0001B1A13446160E3600021FF23A163A2602C
:103BC00084F8443084F8453095B9236963B104F131
:103BD000100000F0A9FD38B14FF08052094B1A6077
:103BE000BFF34F8FBFF36F8FFFF7AEFD012038BDDE
:103BF00004F11000FFF7EFFC04F12400FFF7EBFCE9
:103C0000F2E700BF04ED00E070B50D46064640B98E
:103C10004FF0500383F31188BFF36F8FBFF34F8FC3
:103C2000FEE748434830FFF773FE044650B10023D7
:103C300080F8463045B92060E663256401212046BE
:103C4000FFF7A2FF204670BD00F148030360F3E7D1
:103C50002DE9FF47894601921F46044640B94FF0BF
:103C6000500383F31188BFF36F8FBFF34F8FFEE7CD
:103C7000002940F08880036C002B00F084804FF016
:103C8000500383F31188BFF36F8FBFF34F8FFEE7AD
:103C9000019E002E00F082804FF0500383F31188C4
:103CA000BFF36F8FBFF34F8FFEE7019D1DB9FFF785
:103CB0004BFD002058E016B902A800F077FDFFF791
:103CC00043FD00F0A1FBFFF71DFD94F84430FF2BEE
:103CD00008BF84F8448094F84530FF2B08BF84F86F
:103CE0004580FFF731FD01A902A800F06BFD002817
:103CF00043D1FFF707FDA66BE56BFFF725FDAE424D
:103D000035D1019904F1100000F0F4FC2046FFF7D2
:103D100003FF00F019FC38B94FF08053CAF80030A7
:103D2000BFF34F8FBFF36F8F0126FFF7EBFCA26B42
:103D3000E36B9A4201D3022FB7D13A464946204657
:103D4000FFF7B7FE636A1BB104F1240000F0ECFC3E
:103D500038B14FF08052184B1A60BFF34F8FBFF34A
:103D60006F8FFFF7F1FC012004B0BDE8F08720461B
:103D7000FFF7D2FE00F0E8FBD6E72046FFF7CCFEC7
:103D800000F0E2FB95E7022F02D1E36B012B0AD191
:103D900000F05AFD00283FF47BAF00264FF00008EA
:103DA000DFF814A0C1E74FF0500383F31188BFF38D
:103DB0006F8FBFF34F8FFEE704ED00E02DE9FF4169
:103DC0000446019140B94FF0500383F31188BFF3CB
:103DD0006F8FBFF34F8FFEE7056C45B14FF0500377
:103DE00083F31188BFF36F8FBFF34F8FFEE700F0AF
:103DF0002BFD18B9019D002D40F095802E4600271F
:103E0000DFF83481FFF77EFCA36BE3B1013BA363D2
:103E1000236813B900F024FE6060236963B104F1E4
:103E2000100000F081FC38B14FF08052424B1A6014
:103E3000BFF34F8FBFF36F8FFFF786FC0125284636
:103E400004B0BDE8F081019B63B945B14FF0500368
:103E500083F31188BFF36F8FBFF34F8FFEE7FFF738
:103E600073FCECE716B902A800F0A0FCFFF76CFCAD
:103E700000F0CAFAFFF746FC94F84430FF2B08BF65
:103E800084F8447094F84530FF2B08BF84F84570DF
:103E9000FFF75AFC01A902A800F094FC40BB2046A1
:103EA000FFF7FCFDF0B123683BB9FFF72BFC60681E
:103EB00000F0DAFC0546FFF747FC019904F1240005
:103EC00000F018FC2046FFF727FE00F03DFB38B954
:103ED0004FF08053C8F80030BFF34F8FBFF36F8FA0
:103EE00001268FE72046FFF717FE00F02DFBF7E7CE
:103EF0002046FFF711FE00F027FB2046FFF7CEFD1E
:103F00000028EDD0002D9AD0FFF7FCFB616A19B1B3
:103F1000236B1968C1F10701606800F049FD0025B5
:103F2000FFF712FC8BE74FF0500383F31188BFF3C8
:103F30006F8FBFF34F8FFEE704ED00E02DE9F041F6
:103F40000646FFF7DFFB2D4B2D4C1A682D4F013233
:103F50001A602568002D45D126601B68012B1CD1F5
:103F600078191435FFF737FB8C2DF9D1DFF8C080B5
:103F7000254D4046FFF72FFB2846FFF72CFB234833
:103F8000FFF729FB2248FFF726FB2248FFF723FB18
:103F9000214BC3F80080214B1D60214A2149136841
:103FA0000868013313600123F26A9340034314202D
:103FB0000B6000FB0270311DFFF71BFBFFF7C4FB1A
:103FC000194B1B6863B12368DA6AF36A9A4207D215
:103FD0004FF08052154B1A60BFF34F8FBFF36F8FB6
:103FE000BDE8F081104B1B68002BD6D12368DA6A3C
:103FF000F36A9A4298BF2660CFE700BF5050002076
:10400000B84F0020C44F00207C5000209850002062
:10401000C4500020B0500020BC4F0020C04F0020F2
:104020006050002064500020AC50002004ED00E0FF
:1040300068500020064A13681968064B19B94FF0FA
:10404000FF321A6070471268D268D2685268F8E787
:10405000BC4F0020905000202DE9F04781460A9C7B
:1040600002F18042266B013A06EB8206DDF82480DD
:104070009A4626F007064B1E04F134020F31587899
:1040800002F8010B13F8010F08B18B42F7D1089D1C
:104090000027062D28BF0625201DE562656484F8EB
:1040A0004370A764FFF7A2FAC5F1070504F11800F1
:1040B000FFF79CFAE7642461A561646284F850709C
:1040C000524649463046FFF7F9FA2060B8F1000F32
:1040D00001D0C8F80040BDE8F08710B590F8513025
:1040E00004463BB9006BFFF7A1FC2046BDE8104039
:1040F000FFF79CBC012BF9D0022B08D04FF05003E6
:1041000083F31188BFF36F8FBFF34F8FFEE710BDAE
:1041100080B5DFF85C80124F124C134D236863B9F1
:10412000124B1B68012BF8D94FF08053C8F80030B0
:10413000BFF34F8FBFF36F8FEEE7FFF7E3FAFB6834
:10414000DE68301DFFF778FA2B68013B2B6023688F
:10415000013B2360FFF7F8FA3046FFF7BEFFDDE7CB
:10416000C45000205450002050500020C44F002064
:1041700004ED00E0F8B51B4B1B4E1D68044630688B
:104180000F460430FFF758FA334640B90120316832
:10419000164EC96A3268884022EA00023260621C08
:1041A00007D137B1196812480431BDE8F840FFF76C
:1041B00020BA2C441A68A542546007D90D4A1068E9
:1041C0001968BDE8F8400431FFF71FBA0A4A1068C1
:1041D00019680431FFF719FA084B1A68944238BF7E
:1041E0001C60F8BDD8500020B84F0020645000205B
:1041F000B0500020C04F0020BC4F00209050002045
:1042000070B586B00B9D0C9C45B94FF0500383F3FD
:104210001188BFF36F8FBFF34F8FFEE744B94FF0A4
:10422000500383F31188BFF36F8FBFF34F8FFEE707
:1042300054260496049E542E08D04FF0500383F366
:104240001188BFF36F8FBFF34F8FFEE72563022501
:1042500084F8515005AD01950A9D02940095FFF731
:10426000FBFE2046FFF76AFE059806B070BD2DE9FB
:10427000F043074685B09000884616469946FFF7FA
:1042800047FB0546E8B15420FFF742FB0446A8B1BE
:10429000002380F851300D9B056301930C9B029025
:1042A000009332464B4641463846FFF7D5FE20463E
:1042B000FFF744FE012005B0BDE8F0832846FFF774
:1042C000B5FB4FF0FF30F6E770B50446294DFFF718
:1042D00019FA04B92C68261D3046FFF7ADF960B90C
:1042E0001421E06A244B41435B5833B9012223492E
:1042F00082400B6823EA02030B60A36A1BB104F13E
:104300001800FFF799F91E4A1368013313602B68F0
:104310009C421BD131461B48FFF76BF91A4A1368C0
:1043200001331360FFF710FA184B1B6803B32B68B7
:104330009C421DD1164B1B6893B14FF0500383F381
:104340001188BFF36F8FBFF34F8FFEE7114A2046EE
:104350001368013B1360FFF7C0FEFFF76BFEE1E758
:104360004FF080520C4B1A60BFF34F8FBFF36F8F2B
:1043700070BD00BFB84F0020C44F00206450002023
:1043800060500020C450002054500020AC50002049
:104390005C5000205050002004ED00E010B50024D7
:1043A00088B007AA06A905A80594069401F000F8AC
:1043B000059B00940293069B079A01930D4923469F
:1043C0000D48FFF71DFF90B14FF0500383F31188A4
:1043D000BFF36F8FBFF34F8F4FF0FF32074B1A6061
:1043E0000122074B1A60074B1C60FFF713FA08B055
:1043F00010BD00BF26730008114100089050002036
:10440000AC500020D8500020024A136801331360DA
:10441000704700BF5C500020014B1868704700BF18
:10442000D85000202DE9F84F3C4B1B68002B53D18E
:104430003B4B1C6801341C60BCB93A4B1A681268CB
:1044400042B14FF0500383F31188BFF36F8FBFF376
:104450004F8FFEE7344A1968106818601160334ABC
:10446000136801331360FFF7E5FD314D4FF0000B8A
:104470002B68304F9C423ED3DFF8A880DFF8C49011
:10448000D8F80020126872BB4FF0FF322A6032E089
:1044900006F1040A5046FFF7CFF8B16A19B106F1E8
:1044A0001800FFF7C9F801224FF0140EF06AD9F88E
:1044B000003002FA00F119431F4BC9F800100EFB3F
:1044C00000305146FFF795F83868F16AC26A9142A8
:1044D00028BF4FF0010BD3E7184A4FF0000B1368C9
:1044E0000133136011E0D8F80020D268D6687168F3
:1044F0008C42CDD229603A680F4BD16A14224A43CC
:104500009A58022A28BF4FF0010B0D4A1268002A60
:1045100018BF4FF0010B5846BDE8F88F5C500020E3
:10452000D8500020BC4F0020C04F002094500020E5
:1045300090500020B84F0020C44F00205850002059
:10454000DC500020645000202DE9F843314C2368F2
:1045500043B94FF0500383F31188BFF36F8FBFF35C
:104560004F8FFEE7FFF7CEF82368013B23602468F6
:104570002CB10024FFF7E8F82046BDE8F883264B6D
:104580001B68002BF5D0DFF8A890244FDFF8A4803B
:10459000D9F80030E3B90CB1FFF74CFD204D2C6881
:1045A00044B101271F4EFFF73DFF00B13760013CCA
:1045B000F9D12C601B4B1B68002BDAD04FF08052D6
:1045C000194B1A60BFF34F8FBFF36F8F0124D1E7F0
:1045D000D9F80C300125DC68261D04F11800FFF71E
:1045E0002BF83046FFF728F81420E26A396805FAFC
:1045F00002F30B4300FB028031463B60FEF7F9FFFC
:104600000A4BE26A1B68DB6A9A4224BF054B1D60B5
:10461000BEE700BF5C5000205050002064500020D6
:1046200058500020DC50002004ED00E0B84F00207E
:1046300098500020C44F002008B540B94FF0805278
:104640000D4B1A60BFF34F8FBFF36F8F08BD0B4B3D
:10465000196841B14FF0500383F31188BFF36F8F96
:10466000BFF34F8FFEE7FFF7CFFEFFF783FDFFF7A6
:104670006BFF0028E2D008BD04ED00E05C50002094
:10468000174B10B51A68174B12B101221A6010BDF2
:104690001A60154B1B68B3FA83F31422DBB2C3F123
:1046A0001F035A4311498C58881844B94FF05003DE
:1046B00083F31188BFF36F8FBFF34F8FFEE744681A
:1046C000083264680A44944208BF6268446008BFC4
:1046D0004260142202FB03135B68DA68044BD5E7DF
:1046E0005C500020DC50002064500020C44F0020AB
:1046F000B84F002010B50C4640B94FF0500383F37B
:104700001188BFF36F8FBFF34F8FFEE7054B19681A
:104710001831FEF77AFF2046BDE810400121FFF76F
:1047200029BD00BFB84F002038B5C368DC6844B964
:104730004FF0500383F31188BFF36F8FBFF34F8F98
:10474000FEE704F118052846FEF776FF114B1B68BB
:10475000E3B9251D2846FEF76FFF01230E49E26AE3
:1047600008689340034314200B6029460B4B00FB61
:104770000230FEF73EFF0A4BE26A1B68DB6A9A4290
:1047800085BF0120074B0020186038BD2946064828
:10479000EFE700BF5C50002064500020C44F0020B1
:1047A000B84F0020DC50002098500020034B1B68BD
:1047B0000360034B1B684360704700BF94500020A8
:1047C000D850002070B50C46054640B94FF0500354
:1047D00083F31188BFF36F8FBFF34F8FFEE741B9AB
:1047E0004FF0500383F31188BFF36F8FBFF34F8FE8
:1047F000FEE7FEF787FF0F4B69681A682368581CAD
:104800000ED00D482E680068864201D08A420ED232
:10481000521A9A4209D29B1A23602846FFF7C6FF14
:104820000024FEF791FF204670BD00232360012481
:10483000F7E700BFD8500020945000200122014B20
:104840001A607047DC500020054B1B6833B1054BE4
:104850001B68002B0CBF022000207047012070470E
:10486000AC5000205C5000202DE9F04104460028A7
:1048700042D0244AC36A11681746C96A8B4232D2B1
:1048800014268269204D002AA8BF3A6806FB03530C
:10489000A2BFD26AC2F10702826142699A422DD157
:1048A00000F104084046FEF7C7FE184B48B9E06A1D
:1048B0004643AA592AB901211A68814022EA010215
:1048C0001A603A681968D26AE262012404FA02F0B6
:1048D000084318601420414600FB0250FEF789FE91
:1048E0000120BDE8F0811368406CDC6AA0422CBF57
:1048F00000200120BDE8F081BDE8F0813B68DB6A63
:10490000C362EDE7B84F0020C44F00206450002080
:10491000F8B5044608B90020F8BD224B1B68984240
:1049200008D04FF0500383F31188BFF36F8FBFF3AC
:104930004F8FFEE7836C43B94FF0500383F3118828
:10494000BFF36F8FBFF34F8FFEE7C16A426C013B2D
:1049500091428364DFD0002BDDD1051D2846FEF790
:104960006BFE114E114A50B91421E76A794373580E
:104970002BB901201368B84023EA00031360636C6D
:10498000C3F10701E362A1610124116804FA03F095
:10499000084310601420294600FB0360FEF729FE3F
:1049A0002046F8BDB84F0020C44F002064500020BE
:1049B000F8B5044600284BD0826C42B94FF0500342
:1049C00083F31188BFF36F8FBFF34F8FFEE7436C04
:1049D000994238BF1946C36A8B4239D0012A37D170
:1049E0001C4A1268904208D14FF0500383F311889B
:1049F000BFF36F8FBFF34F8FFEE71426164D82690A
:104A000006FB0353002A4269C162A4BFC1F107013A
:104A100081619A421CD1071D3846FEF70DFEE26AFD
:104A20000E4C40B95643AB592BB901212368914034
:104A300023EA0103236001231420216893400B43E0
:104A40002360394600FB0250BDE8F840FEF7D1BDB7
:104A5000F8BD00BFB84F0020C44F002064500020B4
:104A6000044B1A681AB119688A6C01328A64186892
:104A7000704700BFB84F00202DE9F04F684C87B059
:104A80004FF0FF312068FFF799F94FF0404304934E
:104A90004FF080430027DFF8A4A1DFF8A49103932F
:104AA0000594059B4FF0FF311868FFF787F901283F
:104AB0000446F6D1082F5B4E1ED15B48FFF7BCFDC4
:104AC00073880022AAF80A300023CAE904230323CA
:104AD000B37201F0E7F9554B00940193C82200230B
:104AE00053495448FFF7C3FB0020534B1860FFF7AE
:104AF000EBFBD6E70827D4E77588BAF80030581BD7
:104B000000B20028B8BF404200B21E28F2DD2AB22F
:104B1000934278DCFCF744F80499FCF795F8FCF72D
:104B200059FA041E59DC4FF47A745BE041F2883084
:104B30008442A8BF04464FF00108012202214846E2
:104B4000FDF7A2F986F81480FFF766FC83460A2079
:104B5000FFF772FDFFF760FCA0EB0B008442F6DA72
:104B60004FF0000B02215A46484686F814B0FDF774
:104B70008BF95A4604214846FDF786F940F6B830CD
:104B8000FFF75AFD738820465D1BFCF709F82DB22C
:104B900083462846FCF704F801465846FCF708F916
:104BA00000218346B8F1000F26D0FCF7FFF908B1C9
:104BB000CDF80CB0002DB8BF6D422DB21D2D09DC13
:104BC000B4F57A7F06DD01F06DF902230020B3729F
:104BD000FFF77AFB0137FFB263E741F28830844286
:104BE000A8BF0446012204214846FDF74DF9FF23E2
:104BF0004FF000083375A7E7FCF7CEF90028D9D0AD
:104C0000CDF810B0D6E7FBF7CBFF0399FCF71CF803
:104C1000FCF7E0F9041E89DC4FF47A748BE700BFDF
:104C2000DC54002040530020C0D4010090530020E9
:104C30002B730008D55D00083C53002078530020FA
:104C4000000801402DE9F0434FF0000887B00DF156
:104C5000040914220021484601F055FA0123444674
:104C60000026344D344FADF804300A2C4FD10023C8
:104C7000184639F8132001330A2B1044F9D1B0FB40
:104C8000F3F080B26880E88101F04AF96860FBF7D0
:104C90003FFC32463B46FBF78FFCFBF79FFE00B222
:104CA0006328CABF632328812B81B5F90810234BE1
:104CB0000029ABBF0A200B2291FBF0F21A70B2BFA1
:104CC00001221A7000FB12125A70AB7ADA1E012A06
:104CD0000AD800231A481A4619460068FEF7B8FF9A
:104CE00095F80A8000241BE09845FBD0A8F1030347
:104CF000012BF7D8134C206818B1FFF7E5FA002311
:104D00002360114B186890B1FFF7DEFAEAE70F4A0B
:104D100006AB128803EB4403013423F8142CE4B2ED
:104D20000B48FCF7A3FC3220FFF786FC9DE7044606
:104D3000F6E700BF40530020000024403A53002013
:104D4000DC5400203C5300209053002034530020BA
:104D5000E454002010B580211B48FDF78FF8B0FA0D
:104D600080F44FF4807118486409FDF787F808B99A
:104D700044F002044FF400711348FDF77FF810B9B6
:104D800044F00404E4B24FF400511048FDF776F803
:104D900010B944F00804E4B24FF480410B48FDF729
:104DA0006DF810B944F01004E4B24FF40041074824
:104DB000FDF764F820B944F02004E4B2204610BDA9
:104DC000002C08BF0124F9E7000C0140001001404D
:104DD00037B5FFF7BFFF00242D4B01461870224660
:104DE0004FF4164300942046FEF7D2F8FEF728F958
:104DF000032221460120FEF707FF264A106020B15A
:104E0000234622462146FEF723FF00F0C1FA224B3B
:104E10001A88C82A17D9342005213D2258802B2012
:104E20001A8059810A2299819880D9811E2019827D
:104E300014219A82DA821A83D8805A8319815A827D
:104E40009A8300F081FA00240125234601940095FD
:104E5000C82212491248FFF70AFA23460194009526
:104E6000C82210491048FFF702FA23460194009522
:104E7000C8220E490E48FFF7FAF90194009523461F
:104E80004FF496720B490C48FFF7F1F903B030BDAF
:104E900040530020DC540020585300203373000896
:104EA0009D52000839730008755800083E730008C9
:104EB000454C00084573000841560008013808B504
:104EC000042865D8DFE800F0031D27364A001021CA
:104ED0004848FCF7DEFF002220214648FCF7D4FFBB
:104EE000002240214348FCF7CFFF002280214148A7
:104EF000FCF7CAFF002210213F48BDE80840FCF73C
:104F0000C3BF012210213B48FCF7BEFF20213948D6
:104F1000FCF7BFFFE4E7012210213648FCF7B4FF9D
:104F2000012220213348FCF7AFFF40213148FCF734
:104F3000B0FFDAE7012210212E48FCF7A5FF01227D
:104F400020212C48FCF7A0FF012240212948FCF732
:104F50009BFF80212748FCF79CFFCBE70122102113
:104F60002448FCF791FF012220212248FCF78CFF06
:104F7000012240211F48FCF787FF80211D480122A4
:104F8000FCF782FFBDE8084010211B48FCF781BFF9
:104F9000002210211748FCF777FF00222021154836
:104FA000FCF772FF002240211248FCF76DFF00223F
:104FB00080211048FCF768FF002210210E48FCF702
:104FC00063FF002208210B48FCF75EFF002220212E
:104FD0000948FCF759FF002204210848FCF754FF58
:104FE000002202210548FCF74FFF0022012103485F
:104FF00083E700BF0008014000100140000C0140A1
:10500000013808B5042818D8DFE800F0030A0D10AD
:105010001300012210212148BDE80840FCF734BFED
:1050200001222021F7E701224021F4E7012280211B
:10503000F1E7012210211A48EEE70022102117485B
:10504000FCF722FF002220211448FCF71DFF00225C
:1050500040211248FCF718FF002280210F48FCF77E
:1050600013FF002210210E48FCF70EFF002208213A
:105070000A48FCF709FF002220210948FCF704FF39
:10508000002204210748FCF7FFFE00220221054808
:10509000FCF7FAFE002201210248BDE700080140AA
:1050A00000100140000C0140013808B504282CD83C
:1050B000DFE800F0030E151C230008212B48FCF745
:1050C000E8FE012210212948BDE80840FCF7DCBEBB
:1050D00020212748FCF7DDFE01222021F3E70421EF
:1050E0002448FCF7D6FE01224021ECE702212148AA
:1050F000FCF7CFFE01228021E5E701211D48FCF7E6
:10510000C8FE012210211A48DEE7002210211748AC
:10511000FCF7BAFE002220211448FCF7B5FE00225D
:1051200040211248FCF7B0FE002280210F48FCF716
:10513000ABFE002210210E48FCF7A6FE002208213B
:105140000A48FCF7A1FE002220210948FCF79CFE3A
:10515000002204210748FCF797FE0022022105489F
:10516000FCF792FE002201210248ADE70008014051
:1051700000100140000C014008B509285CD8DFE8A8
:1051800000F0050D192129313A424A53012210211C
:105190003F48FCF779FE0022012143E00122202153
:1051A0003B48FCF771FE002210213948BDE8084059
:1051B000FCF76ABE012240213548FCF765FE00225B
:1051C0002021F2E7012280213148FCF75DFE002218
:1051D0004021EAE7012210212E48FCF755FE00226B
:1051E0008021E2E7012208212948FCF74DFE002238
:1051F00010212848DAE7012220212648FCF744FE46
:1052000000220821D1E7012204212348FCF73CFEBB
:1052100000222021EDE7012202211F48FCF734FE85
:10522000002204211C48C1E701221B481146FCF75B
:105230002BFE00220221F5E7002210211448FCF782
:1052400023FE002220211248FCF71EFE00224021EE
:105250000F48FCF719FE002280210D48FCF714FED0
:10526000002210210B48FCF70FFE002208210848FD
:10527000FCF70AFE002220210648FCF705FE00226A
:1052800004210548FCF700FE00220221024880E7C5
:105290000008014000100140000C0140F8B5264F05
:1052A00000243E46254DBB7A052B0CD8DFE803F0E1
:1052B000031C3110141820460134E4B2FFF75CFFE0
:1052C0000A2C28BF00244FF4FA70FFF7B5F9EAE77B
:1052D000F07AFFF7F3FDF6E7F07AFFF791FEF2E7D9
:1052E000F07AFFF7E1FEEEE710212846FCF7D1FD4A
:1052F00020212846FCF7CDFD40212846FCF7C9FDBA
:1053000080212846FCF7C5FD10210D48FCF7C1FDA2
:10531000D9E708212846FCF7BCFD20210848FCF706
:10532000B8FD04210748FCF7B4FD02210548FCF74D
:10533000B0FD01210348E9E7405300200008014087
:1053400000100140000C014070B586B0FCF7B6FBC0
:105350000023029301230B4C01A902A80494059396
:10536000FCF75CFC084E094DA2592146002302209F
:105370000434FCF7E9FBAC42F6D1FCF7B1FB06B014
:1053800070BD00BF00F80108585BFE1720F8010847
:10539000044B0549054A1868585004339342FAD122
:1053A000704700BF00F80108585BFE1720F801089D
:1053B000034B0360034B0B6080231360704700BFF7
:1053C000E0520020E0500020382230B59DB00DEBB7
:1053D0000200002100F097FE1422002101A800F035
:1053E00092FE2022002106A800F08DFE4FF48033AB
:1053F00002240125109317934FF4E0130EA818937D
:105400000E9513951694FCF74BFD0F234FF4806215
:1054100001930023214601A803930492059302946B
:10542000FCF7A0FF4FF4004306A808930694FDF78D
:1054300057F8024B1D601DB030BD00BF70004242E6
:1054400000B589B0FBF7B8FFFFF7BEFF10220021BF
:105450000DEB020000F057FE644B48F6FE119A690E
:10546000634842F010029A619A69002402F0100227
:105470000092009A9A69012642F020029A619A6984
:10548000022502F020020192019A9A6942F0040278
:105490009A619A6902F004020292029A9A6942F0B1
:1054A00008029A619B69002203F008030393039B9F
:1054B000FCF7EAFC002241F630614E48FCF7E4FCC0
:1054C00000227F214C48FCF7DFFC4FF4604304A925
:1054D0004848049306960594FCF7EEFB0F2304A9B5
:1054E0004448049305940694FCF7E6FB48F6FE1343
:1054F00004A93F480493059607950694FCF7DCFB46
:1055000041F6306304A93B48049305960795069439
:10551000FCF7D2FB7F2304A937480493059607952F
:105520000694FCF7C9FB4FF4607304A93248334D6D
:10553000049306960594FCF7BFFB314B28462B607D
:105540004FF460232E61EB61AC602C732C756C60A2
:10555000049405940694FCF711F9072304A928463E
:10556000059606930494FBF7C5FF4823254A264D6C
:10557000049485E80C0041F287332846EB600594DB
:10558000AC60AC61FDF776F9202304A928460493AA
:105590000594FDF789F949F238531C481C49846089
:1055A00080E80A000C23C460436104618461C46123
:1055B000FDF7E2F94723174E1748049486E80900DF
:1055C00031233046F3600594B460B461FDF752F9BD
:1055D00004A9304604940594FDF766F92846FDF7C2
:1055E0003DF8FFF7F5FBFDF7F1FFFEE70010024085
:1055F0000008014000100140000C0140E45400206C
:105600000024014000100040545500201455002093
:1056100000380140945500200014004010B50446A5
:10562000FBF7EEFE034B18802046BDE81040FCF768
:1056300025B900BF34530020FEF764B8FEF784B8E4
:10564000002508B5064CFDF70DFD3220FEF7F4FFEE
:105650002378002BF7D0FFF777FE2570F3E700BF24
:1056600036530020B1F57A7F70B51BD1042A48DC8F
:10567000254B1446D97A1982997A59821946131BF7
:105680005BB202300CB9002070BD043301EB430360
:10569000DD88013C2D0A00F8025CDB88A4B200F82A
:1056A000013CECE7B1F5FA6F2BD1102A29DC03237A
:1056B000B2FBF3F21146154C531A5BB206300029C7
:1056C000E1D034F8135001392D0A00F8065C34F8A3
:1056D000135089B200F8055C1D1D04EB45056E886A
:1056E0000833360A00F8046C6D8804EB430300F8B5
:1056F000035C9D882D0A00F8025C9B8800F8013C41
:10570000DAE7012070BD00BF40530020585300204D
:10571000B1F5FA6FF0B558D1102A56DC0321B2FB6F
:10572000F1F263B1012B52D103461046294D111AF3
:1057300049B2063358BB0122274B1A70F0BD03460D
:105740001046244C111A49B2063300B9F0BD34F8A2
:10575000115001382D0A03F8065C34F8115080B25C
:1057600003F8055C0D1D04EB45056E880831360A0B
:1057700003F8046C6D8804EB410103F8035C8D8829
:105780002D0A03F8025C898803F8011CDAE713F894
:10579000064C0138240225F8114013F8056C80B23C
:1057A000344405EB410625F81140314613F8047CDA
:1057B00013F8034C04EB0724748113F8026C13F8FC
:1057C000014C04EB06248C82B1E70120F0BD0020DF
:1057D000F0BD00BF5853002036530020B1F5FA6FDA
:1057E000F8B53ED38C18B4F5FC6F3ADCA1F5FA613C
:1057F00014B28DB28BB1012B13D11B4F461E002C5E
:1058000021DC194B0121187810F0010414BF01228A
:1058100022461648FCF738FB03E0134F461E002CC7
:1058200001DC0020F8BD082C2246A8BF082229462A
:10583000D2B23846FDF792FB083C083506F8010F56
:1058400024B2ADB2EBE7082C2246A8BF082216F816
:10585000013FD2B229463846083CFDF755FB24B239
:10586000CDE70120F8BD00BF3753002000100140F4
:10587000012070472DE9F74300264FF00209364D0D
:10588000364F01212846FCF7F9FA024628B10122D9
:1058900002213846FCF7F8FA04E0314B93F9143052
:1058A000012BF5D104212846FCF7E8FA024628B17D
:1058B000012204213846FCF7E7FA04E0284B93F96B
:1058C00014300133F5D102212846FCF7D7FA86427D
:1058D00037D00120FEF7B0FE02212846FCF7CEFAB1
:1058E00086422ED002212846FCF7C8FA064640B36D
:1058F0001B4CA37A052B24D8DFE803F003272727C6
:105900002727638823B900F0CDFA84F80A9018E0BD
:105910004FF00008404684F80B8000F065FBE07211
:105920000028F0D000F0BEFA0423A3720D4B4FF410
:10593000C872019301230C4900930C484346FEF7BB
:1059400096FC0220FEF778FE9BE700F0ABFA0023FE
:10595000A372E372F5E700BF0010014000080140A8
:10596000405300203C5300204C730008794A000843
:10597000114B07B59A690F2142F001029A619A69A9
:105980006FF0010002F001020092009ADA6942F021
:105990008052DA61DB69002203F080530193019B9E
:1059A000FBF79EFF054A536823F0E06343F0007362
:1059B000536003B05DF804FB00100240000001409A
:1059C00010B5044686B01022002102A800F09BFB0F
:1059D0002268144B9A4223D103F56C439A6902A9B9
:1059E00042F400729A619A690F4802F400720092C0
:1059F000009A9A6942F004029A619B6903F00403D9
:105A00000193019B0123029303230393FCF754F9B1
:105A1000122000220521FBF763FF1220FBF794FF01
:105A200006B010BD002401400008014007B503681E
:105A3000154A934214D1154B3620DA69052142F0FC
:105A40001002DA61DB69002203F010030093009B6F
:105A5000FBF746FF3620FBF777FF03B05DF804FB4A
:105A60000B4A9342F9D1094B3720DA69052142F0FC
:105A70002002DA61DB69002203F020030193019B1D
:105A8000FBF72EFF3720E6E7001000400010024031
:105A90000014004010B5044686B01022002102A870
:105AA00000F031FB22681B4B9A4230D103F558437A
:105AB0009A6902A942F480429A619A69164802F4EE
:105AC00080420092009A9A69002442F004029A618E
:105AD0009B6903F004030193019B4FF4007302934D
